:020000040800F2
:10000000B00B0020D500000801180008C916000830
:1000100000000000000000000000000000000000E0
:10002000000000000000000000000000D71B0008D6
:100030000000000000000000D51B0008D91B0008CC
:100040000501000805010008050100080501000878
:100050000501000805010008050100080501000868
:100060000501000805010008050100080501000858
:100070000501000805010008050100080501000848
:100080000501000800000000000000000501000854
:100090000000000005010008050100080501000836
:1000A0000000000005010008050100080501000826
:1000B000050100080000000005010008892700086C
:1000C0000348854600F05AF800480047D127000849
:1000D000B00B00200C4880F308880C480168090E1A
:1000E0000B4A914205D10B480B4901600B480C4962
:1000F00001600C4880470C480047FEE7FEE7FEE73A
:10010000FEE7FEE7FEE70000B00B00200400000061
:100110001F00000018100240010000000000014014
:1001200000000000351C0008C100000830B50B4677
:10013000014600202022012409E00D46D5409D42C1
:1001400005D31D469540491B254695404019154647
:10015000521E002DF1DC30BDD2B201E00270401C15
:10016000491EFBD270470022F6E710B513460A4637
:1001700004461946FFF7F0FF204610BD064C012546
:10018000064E05E0E36807CC2B430C3C984710343F
:10019000B442F7D3FFF798FFFC2800081C29000899
:1001A000704731B500F0B6F8009C0546601C00D0E1
:1001B000641C00F0AFF8401BA042FAD338BD000029
:1001C000F8B5002389E001249C402A46A446224039
:1001D0007ED04C68022C01D0122C0CD1DC08A4007B
:1001E00027183C6A5D07ED0E0F26AE40B4430E693A
:1001F000AE4026433E6205685E000324B4400F799A
:10020000A543BF07BF0FB7402F4307604D68012DBF
:1002100005D0022D03D0112D01D0122D0ED18568ED
:10022000CF68A543B7402F43876047686546AF4313
:100230000D79ED06ED0F9D403D434560C568A54332
:100240008C68B4402C43C4604C68E40044D5264C10
:10025000A56901263543A561A4699D083440009431
:10026000224CAD002F19BC689D072E0F0F25B540FD
:10027000AC430925ED06A84201D100250AE01C4D3A
:10028000A84201D1012505E01A4DA84201D102255D
:1002900000E00525B5402543BD60174C25684E6834
:1002A0009543F60300D51543256065684E68954370
:1002B000B60300D515436560A5684E689543F60200
:1002C00000D51543A560E5684E689543B60200E089
:1002D00002E000D51543E5605B1C0A681546DA406C
:1002E00000D070E7F8BD000000100240000001409F
:1002F000000400480008004800040140006908406C
:1003000000D001207047002A01D0816170478162CE
:100310007047000001480068704700005C00002042
:1003200002480168491C0160704700005C00002021
:1003300010B506480168102211430160002000F04A
:1003400007F800F017F8002010BD00000020024060
:1003500010B5044600F0B2FE7D21C900FFF7E6FEAD
:1003600001F0E2F800222146501E00F021F80020A2
:1003700010BD000008B50848816901221143816160
:10038000816911400091C26901040A43C261C069D8
:100390000840009008BD000000100240C106C90ED0
:1003A00001208840014908607047000000E100E03A
:1003B00010B501F027FA10BD10B50C0606D5490698
:1003C000490E1C2461430818283004E01C246143B2
:1003D0000818FF30093099B2002A06D00122827233
:1003E000C180190C0181002010BD00228272818021
:1003F000F9E71C224A43121810B5FF30FF300230D3
:10040000926BC06901F0B9FE10BD1C224A4312185C
:1004100010B5FF30FF32FF30013202309269C069FF
:1004200001F006FF10BD0000F0B54B065B0E1C4648
:100430001C225343CD091A18002D01D0283201E0A7
:10044000FF32093203461470C909FF335170E1339A
:10045000197A01293DD001211972947A4C49002C56
:10046000547838D0002C147805685FD0A4002E5B37
:10047000760404D52E5B474F0E403E432E5314782E
:100480000568A4002E5B760604D52E5B424F0E4015
:100490003E432E5314780568A4002E5B0E403D4960
:1004A0000E432E53117806688D00715B384C303442
:1004B0002140394C403C214371530168107882003F
:1004C000885A344DF13D284020438852002018724C
:1004D000F0BD0220F0BD002C11D014780568A400F6
:1004E0002E5B760604D52E5B0E402B490E432E5311
:1004F000046810788100605A254A303210E015787F
:100500000468AD00665B760404D5665B0E40214945
:100510000E436653046810788100605A1D4AF13A10
:1005200010401D4A403A10436052CFE7A4002E5BB2
:10053000760404D52E5B174F0E403E432E5314789D
:100540000568A4002E5B760604D52E5B124F0E4084
:100550003E432E5314780568A4002E5B0E400E49CE
:100560000E432E53117806688D00715B094CF13CE7
:100570002140094C403C21437153056810788100AB
:10058000685A034A30321040204368529EE7000008
:100590008F8F000080C00000C0800000F0B54B06C7
:1005A000CA095B0E002A04D01C225A4312182832B2
:1005B00004E01C224A431218FF32093200249470CE
:1005C00013700346C909FF335170E133197A0129C9
:1005D0001DD00121197251781B4E00291B4C117836
:1005E000056816D089006F5A7F0605D56F5A3740C7
:1005F000164E403637436F52117800688A00815A90
:10060000114D3035294010256940202515E0022084
:10061000F0BD89006F5A7F0404D56F5A37400C4EE5
:1006200037436F52117800688A00815A084DF13DB6
:10063000294001252D0369406D0069402143815205
:1006400000201872F0BD00008F8F00008080000035
:1006500080C00000F0B54D066D0E2E461C2465438B
:10066000CF092C18002F01D0283401E0FF340934C1
:100670002670C90961700146FF31E260E131E37023
:100680008C46097A01290ED0012261460A72E3786C
:10069000984A9949002B08D0012B7DD0022B0BD012
:1006A000032B19D110E00220F0BD25780368AD00BE
:1006B0005E5B1640914A0DE0237805689B00EE5A78
:1006C00016400E43EE5207E025780368AD005E5BEE
:1006D00016408B4A16435E5325780668AB00F25AE3
:1006E000884F3A400A432A43F252A27A002A62D043
:1006F0002278076895007B5B824A834E1340334320
:100700007B53E38850265D0803686D00F65AF6189F
:100710002378DF0001239B02FB18F5522389502622
:100720005D0803686D00F65AF6182378DF00774BF2
:10073000FB18F55263780768002B23787ED09B0066
:10074000FD5A6D0404D5FD5A714E15403543FD52D6
:10075000237807689B00FD5A6D0605D5FD5A664E45
:10076000154040363543FD52237805689B00EE5A0C
:100770001640674A1643EE522278036892009D5A4B
:10078000604E303635400D439D520268207883001C
:10079000D05A5F4CF13C00E006E020400843D052C4
:1007A000002061460872F0BD25780368AD005E5BED
:1007B0001640584A8EE76278002AA28821D0530852
:1007C00002685025AD5A5B00AD182278D600012290
:1007D0009202B218AB522278036892009D5A6D06BD
:1007E00006D59D5A474E3540434E403635439D52BF
:1007F000026820788300D05A424C303420402024B4
:1008000043E0530802685025AD5A5B00AD182278CA
:10081000D6003E4AB218AB52026850239B5A3B4D59
:100820009A182378AD1CDB005B19D518E2683E2AC4
:100830000CD9D3021B0CD20603D100E027E05B1ECB
:100840009BB29A020123DB031A4306E0D3031B0C7D
:10085000D20701D05B1C9BB29A022A8023780268DF
:100860009B00D55A6D0405D5D55A264E3540284EE5
:100870003543D552026820788300D05A244CF13C8D
:1008800020400124240360406400604086E79B0010
:10089000FD5A6D0404D5FD5A1D4E15403543FD52D9
:1008A000237807689B00FD5A6D0605D5FD5A124E48
:1008B000154040363543FD52237805689B00EE5ABB
:1008C00016400D4A40321643EE52227805689300D6
:1008D000EA5A0F4EF13E324001263603724076004E
:1008E00072400A43EA52026820788300D05A054CCD
:1008F000303450E78F890000808000008082000043
:10090000808600008F8F00008081000004040000BA
:1009100080C0000080840000F0B54D066D0E1C24E0
:100920006C432418FF340934636122610022A26100
:1009300062702570E5681E46AB4201D92B46F21A5B
:100940006261A67A49060122890DD203002E2F4D3D
:1009500006680CD05027BF5BBE192F1FC919761827
:100960003E2B15D9D902090CDF060CD00DE050271B
:10097000BF5B4919BE19751820E08902114300E0D8
:100980008902298032E0491E89B28902114306E0BA
:10099000D903090CDF0701D0491C89B289023180D3
:1009A0006178002902D0012918D01FE00168502683
:1009B000765A71182678F60075194D193E2B06D90E
:1009C000D902090CDB06D8D1491E89B2D5E7D90373
:1009D000090CDA07D4D0491C89B2D1E7016850224A
:1009E000525A51182278D20052198B52016820783D
:1009F0008200885A064B184001231B0358405B00B5
:100A00005840044B184388520020F0BD06040000F3
:100A10008FBF000080800000F0B50246FF32E13257
:100A2000137A012B0BD001244F06CB097F0E1472D1
:100A3000002B06D01C237B431B18283306E0022022
:100A4000F0BD1C234B431B18FF3309339C701F70F0
:100A5000CE095E70012424031025114B002F0BD00A
:100A60004906C90D002E10D00468605A0D4E304062
:100A700068401843605210E0016808880A4E304010
:100A8000604068401843088007E00568685A064ED1
:100A9000303E304060401843685200201072F0BD74
:100AA00080800000BF8F0000BFBF0000F0B5064689
:100AB0001D464806400E1C2343439C19E563A26370
:100AC000002222640123283463702070E0682B46E2
:100AD000854203D90546181A606100E06261A07A78
:100AE0002A4F002810D0227830689200825A490696
:100AF0005206890D002A16DA5022125A10183A1D91
:100B000089184552228914E0ABB2A2882169306865
:100B100001F04DF830685021095A08182178C900B1
:100B2000C919455220E05022125A1018C9194552CD
:100B3000E288ABB22169306801F039F86178144875
:100B4000002902D0012907D00EE0217832688B00FD
:100B5000D15A01400F4805E0217832688B00D15A04
:100B600001400D480143D152207831688200885AF3
:100B7000074B303318401023584020235840054B72
:100B8000403B184388520020F0BD000002040000E2
:100B90008F8F0000C080000080C0000070B5044648
:100BA000006840308088C00B02D0204600F04CFE28
:100BB00020684030818849050AD58188334A114030
:100BC0008180204600F0DAF80021204600F008F984
:100BD000206840308188490403D581882C4A11401F
:100BE0008180206840308188890403D58188294A22
:100BF000114081802068403081880425C904002983
:100C000010DA0188A9430180BD202168000240312B
:100C10000880204600F0C6F82068403081881E4ACF
:100C200011408180206840308188090517D581886E
:100C30001A4A1140818020684030018808221143FF
:100C400001802068403001882943018020684030BD
:100C50008088C043C00402D5204600F0EBF820682D
:100C600040308188890506D581880D4A11408180F0
:100C7000204600F0ADF8206840308188C90503D5D2
:100C80008188084A1140818070BD0000FFFB000090
:100C9000FFBF0000FFDF0000FFEF0000FFF70000D4
:100CA000FFFD0000FFFE0000F8B500270446002805
:100CB00007D02646FF36E136707A0025002802D09C
:100CC00005E00120F8BD3572204600F03BF8032016
:100CD000707201210BE01C2078430219104620306D
:100CE00041720772C572556395637F1CD563606856
:100CF000B842F0D800200BE01C2242431219FF3208
:100D0000013255721072D57255619561401CD561E2
:100D100062688242F0D8206840300180206840300C
:100D20000580206840308580206840300582BF20E3
:100D30002268000240321080203425717172002038
:100D4000F8BD000008B500680A49884210D10A4879
:100D5000C2690121C9050A43C261C0690022084075
:100D6000009011461F20FFF723FB1F20FFF716FB03
:100D700008BD0000005C00400010024070B5044651
:100D800080680125022801D0FFF70AFAFF34FF34FA
:100D900002342946E06901F01CFBE06901F0E1FA48
:100DA00070BD000010B504468069002806D00748D1
:100DB000016906229143016100F012FFFF34FF3404
:100DC0000234E06901F0F0FA10BD000000ED00E02F
:100DD000FF3010B5FF300230C06901F0EBFA10BDF2
:100DE0000246FF32E132137A012B08D0012313723D
:100DF000002906D0203001710020107270470220B7
:100E000070470068802140308181F5E710B5872167
:100E100089000A580146FF31ED31104601F0E6FA2B
:100E200010BD00684030018B0122D20311430183C1
:100E30000020704710B50446FF30FF300230C06913
:100E400001F017FBA069002804D0034801690622BD
:100E50001143016110BD000000ED00E0F8B504464B
:100E600000683E4DC00352D5E8690026C00007D493
:100E7000E96928040143E961E9690140012600911B
:100E800037480168C90510D4016882151143016013
:100E9000FFF740FA074604E0FFF73CFAC01B64285E
:100EA00024D82F480068C005F6D5286A03273F02DA
:100EB000384020D06168394081421CD0286A2A6AB3
:100EC000B843012109040A432A622A6A8A432A6232
:100ED0002862C0070FD0FFF71DFA009008E0FFF767
:100EE00019FA0099411A1F48814201D90320F8BD1F
:100EF000286A8007F3D5286A6168B84308432862E6
:100F0000002E04D0E969012000078143E9612078BF
:100F1000C00705D0286BA1688008800008432863BB
:100F20002078800605D5286B10218843E1680843A6
:100F300028632068800305D5286B80218843616978
:100F4000084328632088400505D5286B4021884345
:100F50002169084328630020F8BD0000001002400A
:100F60000070004088130000F8B505464E480E4654
:100F70000068C007C00FB0420AD24B480168490858
:100F80004900314301600068C007C00FB04270D112
:100F90002878464C800705D56068F0218843A96809
:100FA000084360602878C00753D06868012817D0CC
:100FB000022818D0032819D021688907002958DA97
:100FC00061688908890001436160FFF7A3F96968D6
:100FD0000746012913D002291DD0032927D034E068
:100FE00021688903EAE721688901E7E7616BC903A2
:100FF000E4E7FFF78FF9C11B2D48814223D86068D1
:101000000007800F0128F4D123E0FFF783F9C11B0B
:101010002748814217D860680007800F0228F4D162
:1010200017E0FFF777F9C11B214881420BD86068B0
:101030000007800F0328F4D10BE0FFF76BF9C11B09
:101040001B48814201D90320F8BD60680007800F6A
:10105000F3D115480168C907C90FB1420BD901681E
:1010600049084900314301600068C007C00FB04221
:1010700001D00120F8BD2878400706D56068072117
:1010800009028843E9680843606000F01DF8616860
:10109000084A0906090F515CC8400749086000204A
:1010A000FFF756F90020F8BD002002400010024072
:1010B00088130000EC280008600000200148006848
:1010C000704700006000002030B516A30FCB89B038
:1010D0006C460FC417A30FCB0FC41A494A680C20E3
:1010E000144604401848042C05D0184B082C04D092
:1010F0000C2C00D1184609B030BD9402240F6D4667
:101100002C5DC96A04AD0907090FD203695C920F0F
:10111000022A02D0032A00D11846FFF707F86043DD
:10112000E9E7000002030405060708090A0B0C0D95
:101130000E0F10100102030405060708090A0B0C24
:101140000D0E0F100010024000127A00006CDC023D
:10115000FEB504460078F04EF04DC00748D06868F0
:101160000007800F01281FD068680007800F022841
:1011700004D16868C003800F022815D06168012976
:1011800019D001208004002901D0052917D0296831
:10119000B1432960296881432960606800281BD019
:1011A000FFF7B8F8074613E02868800320D5606889
:1011B000002876D01CE0286830432860EDE72968D5
:1011C00001432960F7E7FFF7A5F8C01B642869D839
:1011D00028688003F7D50BE0FFF79CF8074604E08A
:1011E000FFF798F8C01B6428F1D828688003F7D46B
:1011F000207880073ED568680007800F14D06868A3
:101200000007800F022804D16868C003800F0128FE
:101210000AD0E068002828681DD001210843286012
:10122000FFF778F807460BE0286880070BD5E068E1
:10123000012836D107E0FFF76DF8C01B0228C6D899
:1012400028688007F7D52868F82188432169C900F4
:10125000084328600EE0400840002860FFF75AF875
:10126000074604E0FFF756F8C01B0228AFD82868ED
:101270008007F7D42078000724D5E0690028686A41
:1012800011D0012108436862FFF744F8074604E0E3
:10129000FFF740F8C01B022899D8686A8007F7D585
:1012A00010E036E1D1E0400840006862FFF732F814
:1012B000074604E0FFF72EF8C01B022887D8686AAB
:1012C0008007F7D4207804274007002861DA00203F
:1012D0000190E869C00008D4E969B8060143E961F2
:1012E000E96901400120009101908D480168C9051C
:1012F00011D40168821511430160FFF70BF80090CB
:1013000005E0FFF707F80099401A642897D8844849
:101310000068C005F5D5A06801280AD0002801D0D2
:10132000052811D0286A400840002862286AB8437E
:1013300002E0286A012108432862A068002812D030
:10134000FEF7E8FF00900AE0286A38432862F0E7D9
:10135000FEF7E0FF0099411A7248814275D8286A69
:101360008007F5D50DE0FEF7D5FF009006E0FEF70B
:10137000D1FF0099411A6B48814266D8286A8007DC
:10138000F5D40198002804D0E969012000078143C1
:10139000E9612078C00635D5606901280CD0401D70
:1013A000686B24D038436863686B4008400068630A
:1013B000FEF7B0FF074622E0686B38436863686B4E
:1013C000012108436863FEF7A5FF074604E0FEF726
:1013D000A1FFC01B022838D8686B8007F7D5686B5F
:1013E000F8218843A169C900084368630AE0B8434B
:1013F0006863F4E7FEF78EFFC01B022825D8686BF0
:101400008007F7D42078800637D568680007800FFA
:10141000032813D068680007800F022804D1686889
:10142000C003800F032809D0206A0028686B16D0FB
:1014300030436863FEF76EFF06460CE0686BC0033E
:101440001BD5206A012864D117E05BE0FEF762FF3C
:10145000801B022856D8686BC003F7D50DE0B04357
:101460006863FEF757FF064604E0FEF753FF801B54
:10147000022847D8686BC003F7D4606A002846D0BA
:1014800069680907890F022943D001263606022818
:10149000286805D0B0432860FEF73CFF044633E0DF
:1014A000B0432860FEF736FF074604E0FEF732FF40
:1014B000C01B022826D828688001F7D4E86A216B6F
:1014C000000900010843E862A16AE06A084369680C
:1014D0007B22D20391430843686028683043286028
:1014E000FEF718FF044604E0FEF714FF001B022875
:1014F00008D828688001F7D509E0FEF70BFF001B2C
:10150000022801D90320FEBD28688001F5D40020FF
:10151000FEBD0120FEBD00000000010000100240E1
:101520000070004088130000094910B5401E884231
:1015300001D9012010BD074C60610321081F00F094
:1015400061F90020A06107202061002010BD00008B
:10155000FFFFFF0000E000E070B502462032137F7D
:10156000012B1BD00123137702245477046865688C
:101570007026B5436560046865680E68354365602C
:101580000468A5688026B543A5600068846849683A
:101590000C43846053770020107770BD022070BD2B
:1015A000F8B50D46040005D026462036707F002889
:1015B00002D006E00120F8BD00203077204600F080
:1015C0003BF80220707720688168C908C9008160F3
:1015D000211D206800F05CFB226890689369116A05
:1015E0002F680743BC461248AF6903403F021F43C0
:1015F000A868104B3843EF6918403F020743EB6877
:1016000028693B432F6A00013F0338431843AA234C
:1016100099436B686D6967462D010D432B439760B5
:101620002168886120680362012070770020F8BD7E
:10163000FCFCFFFF0303FFFF10B586B00446142136
:101640006846FEF790FD1149206888421CD1104879
:101650008269C1140A43826182690A400592426923
:1016600089010A4342614069084005900320000255
:101670000090002002210290039001910491092022
:101680006946C006FEF79CFD06B010BD002C014067
:101690000010024010B504460068002911D004294A
:1016A00004D00122002100F035FB20680122042132
:1016B00000F030FB20680168012211430160002026
:1016C00010BD01220021F3E7FEE770B500231D469F
:1016D0000EE0040F0A2C02D25E00303401E05E00FE
:1016E00037348C555C00641800015B1C6570DBB2FC
:1016F0009342EED370BD000070B586B014216846E9
:10170000FEF731FD12484269012149040A43426152
:10171000406909260840F60605900022022130465D
:10172000FEF7F1FD04200025012400906946019593
:1017300002943046FEF744FD022000900194694671
:10174000039502943046FEF73BFD06B070BD0000E5
:101750000010024010B58CB024216846FEF703FD4E
:1017600000241549154809940A9412C00460846045
:101770007D21C460C9000461416001200F210090F7
:1017800001940394029004910891069005940794A3
:1017900069460A48FFF704FF002801D0FEF700FD64
:1017A000099409A905480A94FFF7D6FE002801D03C
:1017B000FEF7F6FC0CB010BD002C01401401002017
:1017C00010B500220B490C4800F0AAFC002801D0FB
:1017D000FEF7E6FC0949084800F071FE002801D038
:1017E000FEF7DEFC044800F0BBFE002801D0FEF747
:1017F000D7FC10BD0C000020540100206800002020
:10180000704700008307FF22DB0E9A408907090E0C
:10181000994000280BDA0007000F083883080848B1
:101820009B001818C36993430B43C3617047830837
:1018300004489B001B1818689043084318607047C1
:1018400000ED00E000E400E0F0B585B004460021C2
:101850006846818020462030029079E19A891707F6
:101860003F0F24D0BE00815B99809988090470D510
:10187000815BBF4A114081531C2078430519FF3515
:101880000935A87A002820687ED029788A00825AF3
:1018900052047AD55022125ACB00B6491218591860
:1018A000515A8905890D009170D0EA88C1E09A8962
:1018B000D2062BD40288B0490A400280206825460F
:1018C000283501464030008A41182878C200A948CE
:1018D0001018085A8005800D2064A16B0818A063B9
:1018E00000212046FEF785FD029800790028B4D03B
:1018F00068690028B1D102980079802108432168E5
:101900004031888102980021017121E12546FF358F
:10191000038809356A469380928812051AD5098A88
:1019200009182878C2009348001D1018085A294643
:1019300083059B0DAB61AA88E431206800F022F991
:10194000206801888A4A114001802046FFF75EFA2C
:10195000FEE095E0694689880904D6D50188844A65
:101960001140018020685021095A824E08182978B8
:10197000361DC9008919405A83059B0DAB610CD0F7
:10198000AA882969206802E033E045E055E000F0CC
:10199000F9F8A96928694018286100212046FEF756
:1019A00034FD20685021095A08188219E8683E2839
:1019B0000AD9C102090CC00601D1491E89B28802A8
:1019C0000121C903084306E0C103090CC00701D087
:1019D000491C89B28802108021680888674A104033
:1019E00001221203504052005040654A10430880C3
:1019F000AEE05021095A0A182978CB005D49091D2B
:101A00005918515A8905890D009121D0AA88296950
:101A1000009B00F0B7F81BE05022CB00125A55494A
:101A20001218091D5918515A8905890D009104D0C1
:101A30002A892969009B00F0A5F82878226880008F
:101A4000115A4D4B803319404D4B403319431152BD
:101A5000A96900980818A8612869009942182A61A4
:101A60006B69002B03D0E9680098814204D929787A
:101A70002046FEF7CAFC03E029782046FEF74CFF1B
:101A800068468088000663D51C20474320683D19BE
:101A9000815B394A114081532835A87A0028206893
:101AA00011D029788A00825A52061ED55022125A25
:101AB000C90012182F480818105A83059B0DAB61F6
:101AC00024D0EA881EE05021095A09182878C2005B
:101AD00028481018085A83059B0DAB6121D0AA88AD
:101AE0002969206800F063F81BE05022125AC900EF
:101AF00012182048001D0818105A83059B0DAB6171
:101B000004D02A892969206800F051F829782068D2
:101B10008A00815A184B80331940184BF13319430E
:101B20008152206802464030018A28788A1811497B
:101B3000C0004018105A8005800DA86129690A1854
:101B40002A616B692978002B20460DD0FEF7AEFF85
:101B50002068014640318A886B469A81120400D57C
:101B60007CE6002005B0F0BDFEF743FCF0E7000086
:101B70008F0F0000020400000F8F00008FBF0000D5
:101B800080800000101810B5012292025C088018B5
:101B9000002C07D002880A70120A4A70801C891C27
:101BA000641EF7D1DA0701D00078087010BD101854
:101BB00001225B1C920210B55B088018002B08D034
:101BC0004A780C78120222430280801C891C5B1E1A
:101BD000F6D110BD7047704710B5FEF7A1FB10BDE0
:101BE00010B598B034216846FEF7BDFA00240D9474
:101BF0000E940F94182111A81094FEF7B4FA202027
:101C000000900120089009946846FFF7A1FA072088
:101C10000D9003200E900F94012110940DA8FFF752
:101C2000A3F9012040041694119011A8FFF716F9AA
:101C300018B010BD134801680122114301604168CA
:101C4000114A114041600168104A11400160016869
:101C5000012292049143016041683F2212049143A2
:101C60004160C16A09090901C162016BFF22D432D6
:101C700091430163416B4908490041630021816040
:101C800070470000001002400CB8FF08FFFFF6FE8E
:101C9000F0B502681A4B0124A4071A4D984203D0EC
:101CA000A04201D0A84203D17026B2434E6832430D
:101CB000154E164F98420AD0A04208D0A84206D02E
:101CC000134CA04203D0B04201D0B84204D1032447
:101CD0002402A243CC6822438024A2434C692243BD
:101CE00002608A68C2620A688262984203D0B04287
:101CF00001D0B84201D10969016301214161F0BD00
:101D0000002C014000040040004401400048014014
:101D10000020004010B50123046A8B409C430462FC
:101D2000036A8A401343036210BD10B585229200F6
:101D3000125852689047002010BD134610B50A464D
:101D4000002100F004FB002010BD134610B50A4628
:101D5000002100F096FB002010BD10B50446802144
:101D600000F073FB0021204600F06FFB10BD10B5A2
:101D7000FF210522F5310A5000231A46194600F0CA
:101D8000E6FA002010BD10B5FF230224F5331C50E5
:101D900082611346C2610A46002100F072FB0020F6
:101DA00010BD10B5FF210422F5310A5000231A4658
:101DB000194600F066FB002010BD000010B50A4671
:101DC000024903A000F0DCF8004810BDAC0500207B
:101DD00048494420436F6E666967000012200880FE
:101DE000004870472C00002010B50A46024903A0A5
:101DF00000F0C6F8004810BDAC050020484944205A
:101E0000496E746572666163650000000420088095
:101E1000004870472800002010B50A46024903A078
:101E200000F0AEF8004810BDAC05002053544D69D9
:101E300063726F656C656374726F6E6963730000C3
:101E400010B50A46024903A000F09AF8004810BDF8
:101E5000AC05002053544D33322048756D616E201F
:101E6000696E7465726661636500000010B51A20C2
:101E700008800948046BC16A406B081809D0082221
:101E80000649FFF722FC0549042210312046FFF7DE
:101E90001CFC0248801E10BD80F7FF1F420000207E
:101EA000F8B50D4604464988FF300A0AFF30023073
:101EB000130000F071FC084905091649493E4649DE
:101EC0000069237C02682AE0217C022640690029FF
:101ED00005D0C16A684688470146467040E0816A7D
:101EE000F8E7C9B20B0000F057FC0604080F1317FF
:101EF0001E2F0069227C436802E00069227C83680F
:101F000069461046984712E00069227CC368F7E7EB
:101F10000069227C0369F3E70069237C4269694612
:101F20001846904703E00069227C8369E8E7014690
:101F300016E0217C002907D14069416B684688473B
:101F4000F5E7217C002904D029462046FFF705FF4C
:101F5000F8BD4069016B6846884707220146427018
:101F6000684600880028F3D0EA88002AF0D0824230
:101F700000D90246684602802046FFF704FFF8BDFC
:101F800070B5002300281CD00446002502E06D1C1B
:101F9000EDB2641C2678002EF9D16C00A41C1480CC
:101FA000CC5403225B1CCA5400245B1C06E0CA54B8
:101FB0005B1CDAB28C54521CD3B2401C0278002A4B
:101FC000F5D170BD01460020002904D0012901D0BF
:101FD000022901D00220704701207047FF30002104
:101FE000FF300230806901730846704710B504461F
:101FF000812100F0B8F8FF34FF340234A0690028D2
:1020000003D000F0BBFB0020A061002010BD000049
:102010002221018000487047A00000200A21018091
:1020200000487047D000002070B505460024042306
:102030000322812100F07EF9102000F0A1FBFF3582
:10204000FF350235A861002803D000210173204626
:1020500070BD0124FBE710B51346FF244322FD3475
:10206000D200245C1258032C08D1147B002C05D11B
:10207000012414730A46812100F003FA002010BDE8
:1020800070B543230022DB000D781B5860261446F0
:1020900035401BD0202D3ED14A78022A13D0032A86
:1020A0000AD00A2A0BD00B2A03D0FFF756FE0220D3
:1020B00070BD887818602EE00122194622E0488819
:1020C000000A586027E00122191D1BE04D78062DFB
:1020D00004D00A2D19D00B2D1DD11AE04B881B0AF4
:1020E000222B02D0212B06D00BE0CA88382A00D937
:1020F00038220A4C05E0094CCA88183C092A00D944
:1021000009222146FFF73FFE05E00122194608316A
:10211000F8E788789860002070BD0000DC0000209F
:1021200010B5002813D0C31DFF33FA335C69002CAF
:1021300001D000245C61002900D01961FF21012336
:10214000FD310B54027000F0ADF8002010BD0220EC
:1021500010BDFF3010B5FF300230006AFEF71EFAE6
:10216000FFF730FF10BDFF3010B5FF300230006ABE
:10217000FEF75AF9FFF726FF10BDFEB50446FF3003
:10218000E51DE130FF35FA3513460190002908D0EE
:1021900068694269002A49D00198007F032843D02A
:1021A00044E02646FF3681362046716F14300229FE
:1021B00034D1C26881680092914207D9891A81603E
:1021C0008AB219462046FFF7C0FD13E04068114669
:1021D0000746FDF7ABFF002913D10098874210D3C3
:1021E000B06F87420DD2002211462046FFF7ADFDA9
:1021F0000020B06700231A461946204600F0A7F8D1
:102200000CE06869C168002905D00198007F0328A7
:1022100001D1204688472046FFF7A9FD28780128EC
:1022200004D10020287001E0204690470020FEBD28
:1022300070B50546FF35E1352B462033164604467A
:10224000002907D058698269002A29D0287F0328ED
:1022500024D025E0FF21F531E01D0959FD30032987
:102260001ED18268C1688A420BD9511A8160C06848
:10227000814200D301468AB231462046FFF75DFD18
:102280000EE058690169002904D0287F032801D194
:10229000204688472046FFF784FD01E0204690470E
:1022A000002070BD10B51749C41DC861FF34164920
:1022B000FA341648216208600820486002208860CD
:1022C000086100208861C86108620846FEF7ECFCDE
:1022D000002801D0FDF764FF002218231146206A70
:1022E000FEF76AF8582300228021206AFEF764F87E
:1022F000FF23013300228121206AFEF75DF80020D0
:1023000010BD00008C0500208C030020005C004004
:10231000FF30CA09FF3049060230490E1C23006A0B
:1023200059430818002A01D0203001E0FF30013065
:10233000807A704710B5FF301C46FF3002301346DC
:10234000006A2246FEF786F9FFF73CFE10BDFF301B
:1023500010B5FF300230006AFEF7DEFAFFF732FEFA
:1023600010BD70B50022044640231146FFF7E2FF7E
:102370004025FF20113005512B46002280212046A8
:10238000FFF7D8FFFF200121FD3025620155E01D38
:10239000FF30FA308169002904D040692179426810
:1023A00020469047002070BDFF30E130417F01772B
:1023B0000020704710B5FF21FD31095C032906D1CB
:1023C000852189000958C969002900D08847002063
:1023D00010BD017400207047FF3010B5FF3002308F
:1023E000006AFEF7FDFCFFF7EDFD10BD70B5044679
:1023F0004120C0002018054600F04DF82146FF316D
:1024000081310122084680304A67C2898A67007A92
:10241000C106C90E0AD001290DD0022910D0C10968
:10242000C901204600F011F8002070BD2946204661
:1024300000F09BF8F8E72946204600F082F9F3E720
:102440002946204600F008F9EEE7FF3010B5FF30CE
:102450000230006AFEF7E0FAFFF7B4FD10BDFF306E
:1024600010B5FF300230006AFEF7DBFCFFF7AAFD73
:1024700010BDFF30E130017F41770421017700205A
:102480007047FF3010B5FF300230006AFEF70EFBD8
:10249000FFF798FD10BD0A7802704A784270CB7839
:1024A0008A781B02D21842804B790A791B02D21813
:1024B00082808A79C97909025118C1807047024621
:1024C0000020002904D0FF32FF32023251617047F0
:1024D0000220704710B58522920012580224002A6B
:1024E00004D012689047002800D10024204610BD77
:1024F00070B50E468978194D04462970012904D912
:1025000031462046FFF729FC70BD2046FF30E13000
:10251000027F022A15D0032AF2D1002917D0606861
:1025200088420AD0C1B22046FFF7FFFB29786160DC
:102530002046FFF7CFFF0228E2D02046FFF731FC0C
:1025400070BD0029F9D0032261600277F0E7022212
:10255000027720466160FFF7E8FBEEE764000020A9
:1025600010B5FFF77CFF002010BDF8B500220092E7
:10257000C61DFF364C781746FA3632460125203AFA
:10258000230000F009F90A3C564150410906412B4D
:102590002841FFF785FC5DE004468888002818D1B3
:1025A000C888002815D1887817464606107F760E11
:1025B00003280ED0BE7731462046FFF70DFF204698
:1025C000FFF7EFFB002E02D00220387742E03D7784
:1025D00040E0204618E0FFF78BFF3BE0CB88012B63
:1025E00012D1127F022A02D0032A0DD104E0012267
:1025F00001460831876013E00122011D10E0127FBF
:10260000022A04D0032A02D0FFF7A7FB22E0C5600C
:102610007168002901D00321C160014602220C31FA
:10262000FFF7B1FB16E004464888012812D1756017
:1026300009E00446107F022801D00328C9D1488848
:10264000012807D17760706982682046904720464C
:10265000FFF7A7FB0098F8BDF8B504460D462878AB
:10266000E61D4006FF3600270979800FFA3601285B
:1026700009D06A7830462038002A38D0012A1ED086
:10268000032A3DD106E070692946826820469047BA
:102690000020F8BD007F022817D003282CD16888BD
:1026A000002806D1002904D0802902D02046FFF757
:1026B000CCFE7069294682682046904713E0007F6F
:1026C000022802D0032817D104E0002918D080295D
:1026D0001AD115E06888002812D1480603D0204698
:1026E000FFF737FDE5E72046FFF75BFB08E0007FDB
:1026F000022807D003280BD029462046FFF72DFBE0
:102700003846F8BD4806FBD02046FFF79EFEF7E7A7
:10271000C80904D04806400D0519143504E04806E0
:10272000400D0519FF3505352046FFF7F1FD00285E
:1027300000D001202860022229462046FFF723FB13
:10274000DEE770B50446FF30E130007F0D46032818
:102750000FD1287901280CD8852080000059826883
:1027600020469047E888002806D12046FFF719FB4D
:1027700002E02046FFF7F1FA002070BD704700002C
:10278000004870477803002010B50248FEF706FAAB
:1027900010BD00008C03002030B47446641E257800
:1027A000641CAB4200D21D46635D5B00E31830BC85
:1027B000184702E008C8121F08C1002AFAD1704762
:1027C0007047002001E001C1121F002AFBD17047B1
:1027D000FDF7AEFDFFF704FAFEF78EFFFEF7BAFF36
:1027E000FEF7EEFF18213E48FEF754FF3D4C002651
:1027F0000A27A51D3A480168486A80B2A08062880D
:10280000824203D00968C906C90F00E00221217085
:102810006080C8B26178084318D12F703C2068707E
:102820003049AE700322891D2F48FFF714FC0920A0
:1028300001220221C006FDF766FD0220FDF7B1FC72
:10284000092000220221C006FDF75DFD2078012845
:102850001CD16078002819D12F70C4206870FF2027
:102860002049A8700322891D1F48FFF7F4FB0920A7
:1028700001220221C006FDF746FD0220FDF791FC72
:10288000092000220221C006FDF73DFD0920042198
:10289000C006FDF733FD617808430BD12F7001208E
:1028A0006870AE70FF200F4960700322891D0E48CA
:1028B000FFF7D1FB09200421C006FDF71FFD012809
:1028C00098D16078FF2895D12F706E700549AE7051
:1028D00066700322891D0448FFF7BDFB8AE70000EC
:1028E000140100200000002054010020000000001E
:1028F0000000000001020304060708091C29000863
:102900000000002014010000B2270008302A00084F
:10291000140100209C0A0000C227000802000000E9
:102920000000000000000000DD1D00080D1E000872
:10293000191E0008411E00086D1E0008BD1D00087C
:10294000E91D000804030904120100020000004010
:10295000C016DC0500020102030100001A0300009A
:102960000000000000000000000000000000000067
:1029700000000000000000000000000000127A00CB
:102980000000000029200008ED1F00088120000839
:102990000000000000000000DD1F00080000000033
:1029A00000000000000000000000000011200008EE
:1029B00011200008112000081D2000080902220033
:1029C000010100E0320904000001030100000921B7
:1029D000110100012238000705810304000A0000EC
:1029E0000921110100012238000000000A0600023E
:1029F00000000040010000000501090EA101850A48
:102A0000050D0921A10005090901950175011500B0
:102A100025018102050109379501750F550F6514D0
:102A200036F0F146100E16F0F126100E8106C0C0E9
:04000005080000C12E
:00000001FF
